:100000000C9434000C9449000C9449000C94490061
:100010000C9449000C9449000C9449000C9449003C
:100020000C9449000C9449000C9449000C9449002C
:100030000C9449000C9449000C9449000C9449001C
:100040000C9449000C9449000C9449000C9449000C
:100050000C9449000C9449000C9449000C944900FC
:100060000C9449000C94490011241FBECFEFD8E036
:10007000DEBFCDBF11E0A0E0B1E0E2E5F1E002C0FB
:1000800005900D92A830B107D9F70E944B000C944F
:10009000A7000C9400008CE38AB980E284B980EC5C
:1000A0008BB983E085B98AB18C638AB9D0E2D5B9BE
:1000B0002FEF89E698E1215080409040E1F700C0A1
:1000C00000008C2F90E0019687709927C82FFC01C3
:1000D000E050FF4F9081492F4170242F30E091FB79
:1000E000662760F970E092FBAA27A0F9B0E092FDC4
:1000F00027C041112AC06115710539F590E0AD01A5
:1001000042955295507F5427407F5427FB01EE0FB4
:10011000FF1FEE0FFF1FEE0FFF1F4E2B220F331F8F
:10012000220F331F242B292B2BB915B82FEF89E66B
:1001300098E1215080409040E1F700C00000B7CF27
:1001400061157105D9F24111D9CF90E2D8CFF89459
:02015000FFCFDF
:08015200000103020607050489
:00000001FF
